:100000000C945E000C9486000C9486000C94860080
:100010000C9486000C9486000C9486000C94860048
:100020000C9486000C9486000C9486000C94860038
:100030000C9486000C9486000C9486000C94860028
:100040000C9422030C9486000C94F0020C94CA02C7
:100050000C9486000C9486000C9486000C94860008
:100060000C9486000C9486000000000024002700F9
:100070002A0000000008000201000003040700003D
:10008000000000000000010204081020408001026E
:1000900004081020010204081020000000002500C0
:1000A00028002B00040404040404040402020202D5
:1000B00002020303030303036C03DA0511241FBECA
:1000C000CFEFD8E0DEBFCDBF11E0A0E0B1E0ECE0C3
:1000D000FFE002C005900D92AC31B107D9F721E0E5
:1000E000ACE1B1E001C01D92AF3DB207E1F710E015
:1000F000CDE5D0E004C02197FE010E944106CC3539
:10010000D107C9F70E940A040C9479070C940000E7
:1001100090E0FC01EE58FF4F2491FC01EA57FF4F9D
:100120003491FC01EC55FF4FE491EE23B9F1222309
:1001300039F1233091F038F42130A9F0223001F563
:1001400084B58F7D12C0273091F02830A1F0243083
:10015000B9F4809180008F7D03C0809180008F77FB
:10016000809380000DC084B58F7784BD09C08091D5
:10017000B0008F7703C08091B0008F7D8093B00076
:10018000F0E0EE0FFF1FE656FF4FA591B4918FB739
:10019000F894EC9130953E233C938FBF0895FC0179
:1001A000538D448D252F30E0842F90E0821B930BDC
:1001B000541710F0CF96089501970895FC01918D82
:1001C000828D981761F0828DDF01A80FB11D5D96B9
:1001D0008C91928D9F5F9F73928F90E008958FEF27
:1001E0009FEF0895FC01918D828D981731F0828DDB
:1001F000E80FF11D858D90E008958FEF9FEF089532
:10020000FC01918D228D892F90E0805C9F4F821B95
:1002100091098F7399270895FC01848DDF01A80F40
:10022000B11DA35ABF4F2C91848D90E001968F731E
:100230009927848FA689B7892C93A089B1898C913D
:1002400080648C93938D848D981306C00288F38903
:10025000E02D80818F7D80830895EF92FF920F9330
:100260001F93CF93DF93EC0181E0888F9B8D8C8D62
:10027000981305C0E889F989808185FD24C0F62E90
:100280000B8D10E00F5F1F4F0F731127E02E8C8D29
:10029000E8120CC00FB607FCFACFE889F989808113
:1002A00085FFF5CFCE010E940C01F1CF8B8DFE01B1
:1002B000E80FF11DE35AFF4FF0820B8FEA89FB89AB
:1002C0008081806207C0EE89FF896083E889F989AF
:1002D00080818064808381E090E0DF91CF911F91E5
:1002E0000F91FF90EF900895CF93DF93EC01888DED
:1002F0008823C9F0EA89FB89808185FD05C0A8892A
:10030000B9898C9186FD0FC00FB607FCF5CF8081AF
:1003100085FFF2CFA889B9898C9185FFEDCFCE01F9
:100320000E940C01E7CFDF91CF91089589E291E01F
:100330000E94000121E0892B09F420E0822F08951A
:1003400080E090E0892B29F00E94960181110C94A5
:1003500000000895CF92DF92EF92FF920F931F93C8
:10036000CF93DF936C017A018B01C0E0D0E0CE1512
:10037000DF0589F0D8016D918D01D601ED91FC91D9
:100380000190F081E02DC6010995892B11F47E01C1
:1003900002C02196ECCFC701DF91CF911F910F9141
:1003A000FF90EF90DF90CF900895089580E090E067
:1003B0000895CF93DF9390E0FC01EA57FF4F24911B
:1003C000FC01EC55FF4F8491882361F190E0880F88
:1003D000991FFC01E859FF4FC591D491FC01E656E5
:1003E000FF4FA591B491611109C09FB7F89488811E
:1003F000209582238883EC912E230BC0623061F418
:100400009FB7F8943881822F809583238883EC915D
:100410002E2B2C939FBF06C08FB7F894E8812E2B0C
:1004200028838FBFDF91CF9108953FB7F8948091D3
:10043000210190912201A0912301B091240126B5C0
:10044000A89B05C02F3F19F00196A11DB11D3FBF0C
:10045000BA2FA92F982F8827820F911DA11DB11D9A
:10046000BC01CD0142E0660F771F881F991F4A9596
:10047000D1F708958F929F92AF92BF920F931F93DF
:10048000CF93DF93CDB7DEB7A1970FB6F894DEBF59
:100490000FBECDBF19A2423008F44AE08E010F5DB5
:1004A0001F4F842E912CA12CB12CA50194010E94E8
:1004B0000906E62FB901CA0101501109EA3014F406
:1004C000E05D01C0E95CD801EC93232B242B252BA4
:1004D00061F70115110571F0F80101900020E9F7AD
:1004E0003197AF01401B510BB80189E291E00E94A6
:1004F000AA0102C080E090E0A1960FB6F894DEBF9A
:100500000FBECDBFDF91CF911F910F91BF90AF90E4
:100510009F908F900895CF92DF92EF92FF92CF93AA
:10052000DF936C01990FEE08FF08F7FE1AC0E09107
:100530002901F0912A010190F081E02D6DE289E21C
:1005400091E00995EC0166277727CB016C197D09AD
:100550008E099F094AE00E943A027C01EC0EFD1EC2
:1005600006C04AE0C701B6010E943A027C0142E09F
:1005700050E068E171E089E291E00E94AA018E0DED
:100580009F1DDF91CF91FF90EF90DF90CF90089566
:100590000E9474071F920F920FB60F9211242F938F
:1005A0003F934F935F936F937F938F939F93AF93FB
:1005B000BF93EF93FF9389E291E00E940C01FF91BA
:1005C000EF91BF91AF919F918F917F916F915F91CB
:1005D0004F913F912F910F900FBE0F901F90189544
:1005E0001F920F920FB60F9211242F938F939F9308
:1005F000EF93FF93E0913901F0913A018081E0910E
:100600003F01F091400182FD12C090818091420132
:100610008F5F8F7320914301821751F0E091420167
:10062000F0E0E75DFE4F958F8093420101C080812D
:10063000FF91EF919F918F912F910F900FBE0F908F
:100640001F9018951F920F920FB60F9211242F939F
:100650003F938F939F93AF93BF9380911D01909190
:100660001E01A0911F01B091200130911C0123E0D7
:10067000230F2D3720F40196A11DB11D05C026E8DA
:10068000230F0296A11DB11D20931C0180931D0113
:1006900090931E01A0931F01B0932001809121012E
:1006A00090912201A0912301B09124010196A11DF6
:1006B000B11D8093210190932201A0932301B09357
:1006C0002401BF91AF919F918F913F912F910F90F6
:1006D0000FBE0F901F90189510922C0110922B01B5
:1006E00088EE93E0A0E0B0E080932D0190932E017E
:1006F000A0932F01B09330018AE091E090932A01FA
:100700008093290185EC90E0909336018093350128
:1007100084EC90E0909338018093370180EC90E076
:1007200090933A018093390181EC90E090933C01E1
:1007300080933B0182EC90E090933E0180933D01D9
:1007400086EC90E09093400180933F01109242012B
:100750001092430110924401109245011092C7017A
:100760001092CD011092D4011092D5011092D601B1
:100770001092D70181E08093D3018093D001109231
:10078000D10192E09093D2018093C60180E390E082
:100790009093CB018093CA010E9447069093CF01AA
:1007A0008093CE01009761F020E3FC0111922A951D
:1007B000E9F780E190E09093C9018093C80108C0F7
:1007C0001092CB011092CA011092C9011092C80177
:1007D00086E08093CC018091C701882339F061E0E5
:1007E00086E00E94D90186E00E948800EAEAF0E0F3
:1007F000E491F0E0EE0FFF1FE656FF4F85919491D4
:100800009093D9018093D801ECE8F0E0E491E09373
:10081000DA010895CF93DF93CDB7DEB729970FB6EE
:10082000F894DEBF0FBECDBF789484B5826084BDDE
:1008300084B5816084BD85B5826085BD85B58160E4
:1008400085BD80916E00816080936E001092810062
:10085000809181008260809381008091810081601D
:1008600080938100809180008160809380008091DE
:10087000B10084608093B1008091B000816080936A
:10088000B00080917A00846080937A0080917A0031
:10089000826080937A0080917A00816080937A00F0
:1008A00080917A00806880937A001092C1008091D4
:1008B000CC0187FD07C061E00E94D9018091CC0185
:1008C0000E94880081E08093C701F0E42F2EA8E009
:1008D0003A2E20927C0080917A00806480937A0086
:1008E00080917A0086FDFCCF00917800809179009C
:1008F00010E0182B10932801009327012FEF30E010
:10090000D8010E943A062FEF33E040E050E00E9409
:10091000EA053093260120932501C8010E948B022D
:1009200080912501909126010E948B02E12CF12CEF
:10093000C12CD12C00E010E0409125018091C8012C
:100940009091C9010817190708F057C0442E512C7F
:10095000612C712C762D652D542D4427D2019927B9
:100960008827482B592B6A2B7B2B4429552966292C
:1009700077292B0166247724852E962EA72EBB245B
:10098000382D242FE091CD01EE2391F02E2F30E071
:10099000249DC001259D900D349D900D1124492E5C
:1009A0008E9EC0011124392F4E9FA0011124252FA6
:1009B0004091D3015091D0018091CE019091CF010F
:1009C000451303C08C0D9D1D06C08E0D9F1DFC019F
:1009D000E40FF11D10824091D001FC01E40FF11DE4
:1009E00040824091D101FC01E40FF11D3083309130
:1009F000D201FC01E30FF11D20838091CE01909183
:100A0000CF01892B09F4A0C00E9415024090D401A7
:100A10005090D5016090D6017090D701DC01CB01D8
:100A200084199509A609B7098C329140A105B10531
:100A300058F3F8948091CA019091CB019A838983ED
:100A4000A091CE01B091CF01FD0131968C918987A3
:100A50009091C601A091D801B091D9018091DA019D
:100A6000992309F42DC09C91982B98879C9180958F
:100A700089238F838F818C833B8248855F81698541
:100A80003B812C8189819A814C9367FD242F3A9573
:100A90002C93252F39F0661F00C000005C930000E6
:100AA00000C0F2CF38E061915C930000019761F7DC
:100AB000B093D901A093D80169873B832C8337C0B9
:100AC0009C91982B98879C91809589238F838F8107
:100AD0008E833D8248855F8169853D812E81898134
:100AE0009A814C9367FD242F00C000C02C9300C056
:100AF00000C000C000C000C05C930000252F3A95E4
:100B000041F0661F000000C000C000C000C000C06F
:100B1000E8CF38E0619100C05C9300C0019709F70D
:100B2000B093D901A093D80169873D832E839A831E
:100B3000898378940E9415026093D4017093D50143
:100B40008093D6019093D7010E9415024B015C015E
:100B500084EF482E55245394612C712C0E94150269
:100B6000DC01CB0188199909AA09BB09883E934089
:100B7000A105B10558F081E0481A510861087108D3
:100B800028EE820E23E0921EA11CB11C41145104D8
:100B90006104710419F70F5F1F4F83E0C80ED11C69
:100BA00024E0E20EF11C0031110509F0C5CE0E94CF
:100BB000A0018FCE8091CE019091CF01009711F0CE
:100BC0000E94DC068091CC0187FD03C060E00C949C
:100BD000D9010895052E97FB1EF400940E9401068A
:100BE00057FD07D00E94090607FC03D04EF40C9471
:100BF000010650954095309521953F4F4F4F5F4FDF
:100C0000089590958095709561957F4F8F4F9F4F78
:100C10000895A1E21A2EAA1BBB1BFD010DC0AA1F3D
:100C2000BB1FEE1FFF1FA217B307E407F50720F055
:100C3000A21BB30BE40BF50B661F771F881F991FD0
:100C40001A9469F760957095809590959B01AC0119
:100C5000BD01CF010895A29FB001B39FC001A39F22
:100C6000700D811D1124911DB29F700D811D1124E5
:100C7000911D08950E942B06B7FF0895821B930BC8
:100C80000895EE0FFF1F0590F491E02D0994CF9386
:100C9000DF938230910510F482E090E0E091DD0175
:100CA000F091DE0120E030E0C0E0D0E0309711F1BB
:100CB0004081518148175907C0F04817590761F41E
:100CC00082819381209719F09B838A832BC0909314
:100CD000DE018093DD0126C02115310519F0421790
:100CE000530718F49A01BE01DF01EF010280F3817E
:100CF000E02DDCCF2115310509F1281B390B2430FB
:100D0000310590F412968D919C91139761157105A0
:100D100021F0FB019383828304C09093DE018093D2
:100D2000DD01FD01329644C0FD01E20FF31F819306
:100D30009193225031092D933C933AC02091DB01CD
:100D40003091DC01232B41F4209102013091030109
:100D50003093DC012093DB012091000130910101EF
:100D60002115310541F42DB73EB740910401509152
:100D70000501241B350BE091DB01F091DC01E2174A
:100D8000F307A0F42E1B3F0B2817390778F0AC01AE
:100D90004E5F5F4F2417350748F04E0F5F1F50938B
:100DA000DC014093DB018193919302C0E0E0F0E02D
:100DB000CF01DF91CF9108950F931F93CF93DF93CE
:100DC000009709F48CC0FC013297138212820091C3
:100DD000DD011091DE010115110581F420813181C1
:100DE000820F931F2091DB013091DC012817390716
:100DF00079F5F093DC01E093DB0171C0D80140E0AC
:100E000050E0AE17BF0750F412962D913C91139706
:100E1000AD012115310509F1D901F3CF9D01DA01A9
:100E20003383228360817181860F971F8217930716
:100E300069F4EC0128813981260F371F2E5F3F4F5F
:100E4000318320838A819B8193838283452B29F47C
:100E5000F093DE01E093DD0142C01396FC93EE9324
:100E60001297ED01499159919E01240F351FE21708
:100E7000F30771F480819181840F951F029611967A
:100E80009C938E938281938113969C938E93129759
:100E9000E0E0F0E0D80112968D919C9113970097B5
:100EA00019F0F8018C01F6CF8D919C9198012E5F7D
:100EB0003F4F820F931F2091DB013091DC012817F7
:100EC000390769F4309729F41092DE011092DD01A0
:100ED00002C0138212821093DC010093DB01DF91C8
:100EE000CF911F910F91089581E090E0F8940C94B8
:100EF000790710E0CDE5D0E004C0FE010E94410674
:0C0F00002196CE35D107C9F7F894FFCF39
:100F0C000000DF018000000000002D01AA01CF00CD
:0C0F1C0074010001DE00F2000D0A00006C
:107800000C94343C0C94513C0C94513C0C94513CE1
:107810000C94513C0C94513C0C94513C0C94513CB4
:107820000C94513C0C94513C0C94513C0C94513CA4
:107830000C94513C0C94513C0C94513C0C94513C94
:107840000C94513C0C94513C0C94513C0C94513C84
:107850000C94513C0C94513C0C94513C0C94513C74
:107860000C94513C0C94513C11241FBECFEFD8E036
:10787000DEBFCDBF11E0A0E0B1E0ECE9FFE702C060
:1078800005900D92A230B107D9F712E0A2E0B1E065
:1078900001C01D92AD30B107E1F70E942D3D0C945F
:1078A000CC3F0C94003C982F959595959595959582
:1078B000905D8F708A307CF0282F295A8091C0000B
:1078C00085FFFCCF9093C6008091C00085FFFCCF60
:1078D0002093C6000895282F205DF0CF982F809127
:1078E000C00085FFFCCF9093C6000895EF92FF92F1
:1078F0000F931F93EE24FF2487018091C00087FD22
:1079000017C00894E11CF11C011D111D81E4E8164B
:1079100082E4F8068FE0080780E0180770F3E09132
:107920000401F091050109958091C00087FFE9CF1E
:107930008091C6001F910F91FF90EF9008950E94D3
:10794000763C982F8091C00085FFFCCF9093C600B5
:1079500091362CF490330CF09053892F089597555D
:10796000892F08951F930E949F3C182F0E949F3CCF
:107970001295107F810F1F9108951F93182F882350
:1079800021F00E94763C1150E1F71F9108951F935A
:10799000182F0E94763C803249F0809103018F5F5E
:1079A000809303018530C1F01F9108958091C0003C
:1079B00085FFFCCF84E18093C6008091C00085FFE5
:1079C000FCCF1093C6008091C00085FFFCCF80E102
:1079D0008093C6001F910895E0910401F091050184
:1079E00009951F9108950E94763C803241F0809164
:1079F00003018F5F80930301853081F008958091AA
:107A0000C00085FFFCCF84E18093C6008091C00058
:107A100085FFFCCF80E18093C6000895E0910401CA
:107A2000F09105010995089540E951E08823A1F0FE
:107A30002D9A28EE33E0FA013197F1F721503040CA
:107A4000D1F72D9828EE33E0FA013197F1F7215064
:107A50003040D1F7815061F708953F924F925F9285
:107A60006F927F928F929F92AF92BF92CF92DF924E
:107A7000EF92FF920F931F93CF93DF93000080E16B
:107A80008093C4001092C50088E18093C10086E015
:107A90008093C2005098589A259A81E00E94143D24
:107AA00024E1F22E9EE1E92E85E9D82E0FE0C02ECA
:107AB00010E1B12EAA24A394B1E49B2EA6E58A2E50
:107AC000F2E57F2EE0E26E2E79E4572E63E5462E36
:107AD00050E5352E0E94763C8033B1F18133B9F107
:107AE000803409F46FC0813409F476C0823409F41B
:107AF00085C0853409F488C0803531F1823521F1A3
:107B0000813511F1853509F485C0863509F48DC0BC
:107B1000843609F496C0843709F403C1853709F423
:107B200072C1863709F466C0809103018F5F80932C
:107B30000301853079F6E0910401F0910501099582
:107B40000E94763C803351F60E94F33CC3CF0E94E2
:107B5000763C803249F78091C00085FFFCCFF092DF
:107B6000C6008091C00085FFFCCF9092C600809136
:107B7000C00085FFFCCF8092C6008091C00085FFC9
:107B8000FCCF7092C6008091C00085FFFCCF609250
:107B9000C6008091C00085FFFCCF5092C600809146
:107BA000C00085FFFCCF4092C6008091C00085FFD9
:107BB000FCCF3092C6008091C00085FFFCCFB09210
:107BC000C60088CF0E94763C863808F4BDCF0E945C
:107BD000763C0E94F33C7ECF0E94763C803809F4CC
:107BE0009CC0813809F40BC1823809F43CC1883942
:107BF00009F48FC080E00E94C73C6CCF84E10E94F2
:107C0000BD3C0E94F33C66CF85E00E94BD3C0E94D3
:107C1000F33C60CF0E94763C809306010E94763C44
:107C2000809307010E94F33C55CF0E94763C80333D
:107C300009F41DC183E00E94BD3C80E00E94C73C66
:107C400049CF0E94763C809309020E94763C809343
:107C5000080280910C028E7F80930C020E94763C79
:107C6000853409F415C18091080290910902892B8D
:107C700089F000E010E00E94763CF801E85FFE4FDA
:107C800080830F5F1F4F80910802909109020817AF
:107C9000190788F30E94763C803209F045CF809125
:107CA0000C0280FF01C16091060170910701660F0F
:107CB000771F7093070160930601A0910802B091AD
:107CC00009021097C9F0E8E0F1E09B01AD014E0F09
:107CD0005F1FF999FECF32BD21BD819180BDFA9A17
:107CE000F99A2F5F3F4FE417F50799F76A0F7B1F4B
:107CF00070930701609306018091C00085FFFCCF5F
:107D0000F092C6008091C00085FFFCCFB092C60003
:107D1000E1CE83E00E94C73CDDCE82E00E94C73CFA
:107D2000D9CE0E94763C809309020E94763C8093D3
:107D300008028091060190910701880F991F909386
:107D40000701809306010E94763C853409F4A6C0A1
:107D500080910C028E7F80930C020E94763C8032D0
:107D600009F0B8CE8091C00085FFFCCFF092C6002C
:107D7000609108027091090261157105B9F140E046
:107D800050E080910C02A82FA170B82FB27011C0E2
:107D9000BB2309F45CC0E0910601F0910701319624
:107DA000F0930701E09306014F5F5F4F46175707B7
:107DB000E8F4AA2369F3F999FECF209106013091E6
:107DC000070132BD21BDF89A90B58091C00085FFB2
:107DD000FCCF9093C6002F5F3F4F30930701209355
:107DE00006014F5F5F4F4617570718F38091C00099
:107DF00085FDE5CE8091C00085FFF8CFE0CE81E023
:107E00000E94C73C67CE0E94763C803209F08CCE3F
:107E10008091C00085FFFCCFF092C6008091C00029
:107E200085FFFCCFE092C6008091C00085FFFCCFAB
:107E3000D092C6008091C00085FFFCCFC092C600E2
:107E40008091C00085FFFCCFB092C60043CEE09188
:107E50000601F091070194918091C00085FFFCCF4D
:107E60009093C6009CCF80E10E94C73C33CE0E9415
:107E7000763C0E94763C182F0E94763C112309F430
:107E800083C0113009F484C08FE00E94C73C22CE29
:107E900080910C02816080930C02E5CE80910C02EF
:107EA000816080930C0259CF809107018823880F4D
:107EB000880B8A2180930B02809106019091070123
:107EC000880F991F90930701809306018091080203
:107ED00080FF09C080910802909109020196909359
:107EE000090280930802F894F999FECF1127E091D6
:107EF0000601F0910701C8E0D1E08091080290915D
:107F00000902103091F40091570001700130D9F34B
:107F100003E000935700E89500915700017001308D
:107F2000D9F301E100935700E89509901990009169
:107F3000570001700130D9F301E000935700E89534
:107F40001395103498F011270091570001700130FB
:107F5000D9F305E000935700E895009157000170B0
:107F60000130D9F301E100935700E895329602976A
:107F700009F0C7CF103011F00296E5CF112480919F
:107F8000C00085FFB9CEBCCE8EE10E94C73CA2CD19
:0C7F900085E90E94C73C9ECDF894FFCF0D
:027F9C00800063
:040000030000780081
:00000001FF
